:03000000020530C6
:0C053000787FE4F6D8FD75817F02057726
:100644000153000251001F0256001F02090000203E
:100654003C0D00000000000000000000000000004D
:100664000000000000000000000000000000000086
:100674000000000000000000000000000000000076
:10068400000000000000000000000000000002580C
:100694000000025C000702660005026800000849C9
:1006A4000000000000000000106C000000000000CA
:0A06B400000000000000000000003C
:050BFF00F57D7FC8FE3A
:100C0400E4FDFCC3ED9FEC9E5015E4FBFA0BBB0026
:0F0C1400010AEB64704A70F50DBD00010C80E41D
:010C230022AE
:100C7500D3EF9400EE9400400800EF1F70F21E8041
:020C8500EF225C
:100C8700D2B77F147E00120C75C2B77F147E0002A4
:020C97000C75DA
:09000E007F057E00120C047F380E
:0B001700C2B5C2B6D2B78F80020C87C2
:0B0CE600D2B5C2B6D2B78F80020C87D7
:100C9900ED7006EF2480FC8004EF24C0FCAF040251
:020CA900001732
:050CCC002430FB7D0156
:080CD100120C99AF03020CE6BE
:060CAB007FC8FE120C04DC
:0C0CB1007F011200177F057E00020C047A
:100BD3007F3812001712000E12000E7F0812001742
:100BE3007F011200177F057E00120C041F120017ED
:0C0BF3007F057E00120C047F0C0200172E
:10094000C3E55864809480500B74032559F559E42D
:100950003558F558D3E49559E5586480F874809873
:100960007E0050047F0180027F00C3EF9403EE6499
:100970008094805007E5597F0B120CCCC3E5599445
:1009800003E55864809480401574FD2559F5597429
:0F099000FF3558F5587B307D017F0B120CD122BB
:10049300C3E55C648094805025E5594558700CF59C
:1004A30058755902F55C755D038013740A255DF573
:1004B3005DE4355CF55CE559155970021558D3E4D4
:1004C300955DE55C6480F87480987E0050047F013C
:1004D30080027F00C3EF940AEE648094805023E58A
:1004E30059640245587014E55D6404455C700AF56F
:1004F30058F559F55CF55D80028000E55D7F0C12CF
:100503000CCCC3E55D940AE55C64809480401D7463
:10051300F6255DF55D74FF355CF55C0559E55970AD
:0D0523000205587B307D017F0C120CD122A7
:10087800C3E56664809480500B74062567F567E4C9
:100888003566F566D3E49567E5666480F874809804
:100898007E0050047F0180027F00C3EF9406EE645F
:1008A800809480500CE5672430FB7D017F0E120C8C
:1008B800D1C3E5679406E56664809480401574FAB0
:1008C8002567F56774FF3566F5667B307D017F0E19
:0408D800120CD1220B
:1008DC00C3E56864809480500B740A2569F569E45B
:1008EC003568F568D3E49569E5686480F874809898
:1008FC007E0050047F0180027F00C3EF940AEE64F7
:10090C00809480500CE5692430FB7D017F0F120C24
:10091C00D1C3E569940AE56864809480401574F647
:10092C002569F56974FF3568F5687B307D017F0FAB
:04093C00120CD122A6
:05002600C295C2972203
:100A5000D295430701E4FDEDC3940874809480505F
:100A600015EF30E004D2968002C296D297C297EF7B
:100A7000C313FF0D80E1E4FDEDC3940874809480FE
:100A80005016EEC313FE30960543068080035306CE
:0C0A90007FD297C2970D80E0C295AF06A0
:010A9C002237
:100B6F007F8C120A508F4A7F88120A508F4B7F86D4
:100B7F00120A508F4C7F84120A508F4D7F82120AB7
:100B8F00508F4E7F80120A50EF547FF54F7F8A129D
:050B9F000A508F5022F6
:090CF100D2A7D2A6D2A5D2A422FA
:100B370030A70930A60630A50320A42B7F0A7E0024
:100B4700120C0430A70930A60630A50320A41820EC
:100B5700A703757C0120A603757D0120A503757E7B
:080B67000120A403756B0122BB
:100C2400AF90E4F554E5525FF55565577004E5540B
:100C34006556600E855456855557055BE55B700215
:030C4400055A222C
:10031E00E5702430FBE4FD7F01120CD1E571243031
:10032E00FB7F02120CD17B2F7F03120CD1E57224BE
:10033E0030FB7F04120CD1E5732430FB7F05120CC9
:10034E00D1E5742430FB7F07120CD1E5752430FB08
:10035E007F08120CD17B3A7F09120CD1E57624303E
:10036E00FB7F0A120CD1E5772430FB7F0B120CD1E8
:10037E007B3A7F0C120CD1E5782430FB7F0D120CEA
:10038E00D1E5792430FB7F0E120CD17B610DE4FF99
:10039E00120CD17B6C7F01120CD17B617F02120C8F
:1003AE00D17B727F03120CD17B6D7F04120CD17B3B
:1003BE007C7F05120CD17F0A120CD17B737F0B123E
:1003CE000CD10B7F0C120CD17B617F0D120CD17BEB
:0D03DE00727F0E120CD17B747F0F020CD1C8
:03073500120CB1F2
:100738007B73E4FDFF120CD17B657F01120CD17B2A
:10074800747F02120CD17F03120CD17B697F0412D3
:100758000CD17B6E7F05120CD17B677F06120CD102
:100768007B617F08120CD17B6C7F09120CD17B61F5
:100778007F0A120CD17B727F0B120CD17B6D7F0C20
:10078800120CD17B3A7F0D120CD10D7F0D120CD1BA
:0C0798001204931209401208780208DCD9
:100811007B67E4FD7F03120CD17B6F7F04120CD147
:100821007F05120CD17B647F06120CD17B6E7F0891
:10083100120CD17B697F09120CD17B677F0A120CE4
:10084100D10B7F0B120CD17B747F0C120CD17B214D
:100851007F0D120CD17B7C0D7F0B120CD17B737F32
:100861000C120CD10B7F0D120CD17B6F7F0E120C71
:07087100D10B7F0F020CD137
:1006BF007B67E4FD7F02120CD17B6F7F03120CD19D
:1006CF007F04120CD17B647F05120CD17B6D7F07E9
:1006DF00120CD17B6F7F08120CD17B727F09120C29
:1006EF00D17B6E7F0A120CD17B697F0B120CD17BF1
:1006FF006E7F0C120CD17B677F0D120CD17B217F8B
:10070F000E120CD17B7C0D7F0B120CD17B737F0CE7
:10071F00120CD10B7F0D120CD17B6F7F0E120CD1EF
:06072F000B7F0F020CD14C
:10002E007B73E4FDFF120CD17B6C7F01120CD17B34
:10003E00657F02120CD17F03120CD17B707F0412EC
:10004E000CD17B687F06120CD17B6F7F07120CD10F
:10005E007B757F08120CD17B727F09120CD17B3A13
:10006E007F0A120CD1AE60AF617C007D3C1209FBA1
:10007E00EF2430FBE4FD7F0B120CD1AE60AF617C40
:10008E00007D061209FBEF2430FBE4FD7F0C120C01
:10009E00D17B3A7F0D120CD1AE60AF617C007D0634
:1000AE001209FBED2430FBE4FD7F0E120CD17B30E8
:1000BE007F0F120CD17B640DE4FF120CD10B7F016C
:1000CE00120CD17F02120CD17B707F03120CD17BEC
:1000DE003A7F04120CD1AE09AF0A7C007D3C1209A6
:1000EE00FBEF2430FB7D017F05120CD1AE09AF0A68
:1000FE007C007D061209FBEF2430FB7D017F06128A
:10010E000CD17B3A7F07120CD1AE09AF0A7C007D71
:10011E00061209FBED2430FB7D017F08120CD17B0A
:06012E00307F09020CD134
:100A9D007B73E4FD7F02120CD17B657F03120CD1B9
:100AAD007B6E7F04120CD17B647F05120CD17B6DA4
:100ABD007F07120CD17B657F08120CD17B737F09E8
:100ACD00120CD17F0A120CD17B617F0B120CD17BE2
:0D0ADD00677F0C120CD17B657F0D020CD1E0
:100BA4007B737D017F09120CD17B757F0A120CD1F6
:100BB4007B637F0B120CD17F0C120CD17B657F0DF4
:0F0BC400120CD17B737F0E120CD17F0F020CD15C
:10023900E4F50BF50C050CE50C7002050BB410F593
:10024900E50BB427F0D2A0E4F50BF50C050CE50C91
:100259007002050BB410F5E50BB427F0C2A0E4F564
:100269000BF50C050CE50C7002050BB410F5E50B4C
:10027900B427F0D2A0E4F50BF50C050CE50C7002DF
:10028900050BB410F5E50BB427F0C2A0E4F50BF5A6
:100299000C050CE50C7002050BB410F5E50BB42741
:1002A900F0D2A0E4F50BF50C050CE50C7002050B7A
:1002B900B410F5E50BB427F0C2A0E4F50BF50C0575
:1002C9000CE50C7002050BB410F5E50BB427F0D260
:1002D900A0E4F50BF50C050CE50C7002050BB41048
:1002E900F5E50BB427F0C2A0E4F50BF50C050CE518
:1002F9000C7002050BB410F5E50BB427F0D2A0E49D
:10030900F50BF50C050CE50C7002050BB410F5E5C1
:050319000BB427F022E7
:080003008F993099FDC299228A
:0F0CBD00438901E4F58CF58AD28CD2A9D2AF22FB
:100C5F00758920758DFD758BFDE4F587759850D2DC
:060C6F00AFD2ACD28E22D0
:0D0CD90075CB3C75CAB0D2CAD2ADD2AF22E5
:03000B0002099F48
:10099F00C0E0C0D075D000C000758C00758A00E52E
:1009AF006364014562703E055FE55F7002055EB4EA
:1009BF00F333E55EB4202EC3E55B9404E55A94004F
:1009CF005008050AE50A70020509755E00755F009B
:1009DF00740D2561F8A65B0561E561700205607510
:0C09EF005A00755B00D000D0D0D0E03280
:03002300020CFAD2
:050CFA0085997FC298FE
:010CFF0032C2
:03002B000205BC0F
:0D05BC00C0E0C0D075D000C005C006C0076B
:1005C900C2CF0508E50864047066F508120B6FE5EB
:1005D90049C4540FF56CE549540FF56DE54AC45407
:1005E9000FF56EE54A540FF56FE54BC4540FF570DE
:1005F900E54B540FF571E54CC4540FF572E54C54B5
:100609000FF573E5505407F57AE54DC4540FF574A9
:10061900E54D540FF575E54EC4540FF576E54E5486
:100629000FF577E54FC4540FF578E54F540FF57979
:0B063900D007D006D005D0D0D0E032B2
:10013400120738120B37E56B6401700C7FC8FE128E
:100144000C04E4F56B020CB1E57D6401700E120B36
:10015400FF055DE55D7002055C120735E57E64010F
:100164007013F57E7FC8FE120C04E55D155D700208
:10017400155C120735E57C640170B8F57C7FC8FE18
:10018400120C04120B37E57D64017011120BFF058C
:1001940067E56770020566120CB1120738E57E64E4
:1001A400017016F57E7FC8FE120C04E567156770B2
:1001B400021566120CB1120738E56B6401700280F7
:1001C40051E57C640170BCF57C7FC8FE120C0412FE
:1001D4000B37E57D64017011120BFF0569E5697049
:1001E400020568120CB1120738E57E64017016F539
:1001F4007E7FC8FE120C04E5691569700215681249
:100204000CB1120738E56B6401700F7FC8FE120C45
:1002140004E4F56B120CB1020146E57C640170AF95
:100224007FC8FE120C04E4F57C756A01120CB1124D
:05023400081102014663
:1003EB00E4F56A120CB11208117FC87E00120C04DE
:1003FB00756200756301120B37120C24E56B6401F7
:10040B007015E4F56B120CB1D2A07FC87E00120CF4
:10041B0004E4F562F56322E574B559D4E4B558D01C
:10042B00E575B55DCBE4B55CC7E576B567C2E4B5FC
:10043B0066BEE577B569B9E4B568B5120B37120C32
:10044B0024E55765527004E55665516010120CB1E6
:10045B001206BF7FC87E00120C04120239E557B595
:10046B00520AE556B55105120CB18014E56B6401C7
:10047B0070C9F56B120CB1D2A07FC87E00120C04B0
:08048B00E4F562F56302040DC3
:100AEA00120A9D120B37E56B6401700CF56B120C40
:100AFA00B17FC87E00020C04E57E640170E5F57ED4
:100B0A00F564F565740D2565F8E62430FF120003D7
:100B1A000565E56570020564C3943CE5649400408C
:0D0B2A00E37FC87E00120C04120BA480B6FD
:100C470012002E120B37E56B640170F7F56B120C6F
:080C5700B17FC87E00020C040D
:1007A4007F327E00120C04120BD3120CB1120026FD
:1007B4007F0A7E00120C04120CBD120C5F120CD9BD
:1007C400120CF112031E120B37E56A640170031256
:1007D40003EBE57C64017008F57C120CAB12013468
:1007E400E57D64017009120BFF120CB1120C47E590
:1007F4007E64017008F57E120CAB120AEAE56B64A4
:0D0804000170C0F56B756A01120CAB80B677
:10053C000207A4E493A3F8E493A34003F68001F22A
:10054C0008DFF48029E493A3F85407240CC8C333C0
:10055C00C4540F4420C8834004F456800146F6DF8F
:10056C00E4800B0102040810204080900644E47ED5
:10057C00019360BCA3FF543F30E509541FFEE49384
:10058C00A360010ECF54C025E060A840B8E493A34B
:10059C00FAE493A3F8E493A3C8C582C8CAC583CA76
:1005AC00F0A3C8C582C8CAC583CADFE9DEE780BE2E
:0106BE00003B
:1009FB00BC000BBE0029EF8DF084FFADF022E4CCE0
:100A0B00F875F008EF2FFFEE33FEEC33FCEE9DECA8
:100A1B00984005FCEE9DFE0FD5F0E9E4CEFD22EDEE
:100A2B00F8F5F0EE8420D21CFEADF075F008EF2F38
:100A3B00FFED33FD4007985006D5F0F222C398FD29
:050A4B000FD5F0EA22C6
:00000001FF
